:020000040800F2
:100000000000052461150008751400087714000825
:10001000791400087B1400087D140008000000001B
:10002000000000000000000000000000619D0008CA
:100030007F14000800000000F19D00088B96000866
:10004000B1150008B1150008B1150008B115000878
:10005000B1150008B1150008B1150008B115000868
:10006000B1150008B1150008B1150008B115000858
:10007000B1150008B1150008B1150008B115000848
:10008000B1150008B1150008B1150008B115000838
:10009000B1150008B1150008B1150008B115000828
:1000A000B1150008B1150008B1150008B115000818
:1000B000B1150008B1150008B1150008B115000808
:1000C000B1150008B1150008B1150008B1150008F8
:1000D000B1150008B1150008B1150008B1150008E8
:1000E000B1150008B115000800000000B1150008A6
:1000F000B1150008B1150008B1150008B1150008C8
:10010000B1150008B1150008B1150008B1150008B7
:10011000B1150008B115000881140008B1150008D8
:10012000B1150008B1150008B1150008B115000897
:10013000B1150008B1150008B1150008B115000887
:1001400000000000000000000000000000000000AF
:10015000B1150008B1150008B1150008B115000867
:10016000B1150008B1150008B1150008B115000857
:10017000B11500088D140008B1150008B11500086C
:10018000B1150008B1150008B1150008B115000837
:10019000B1150008B1150008B1150008B115000827
:1001A00099140008B1150008A5140008000000000B
:1001B000B1150008B1150008B1150008B115000807
:1001C000B1150008B1150008000000000000000093
:1001D0000000000000000000B11500080000000051
:1001E000000000000000000000000000000000000F
:1001F0000000000000000000B1150008B115000863
:10020000B1150008B115000800000000B115000884
:10021000B1150008B1150008B1150008B1150008A6
:10022000B115000800000000B11500080000000032
:10023000B1150008B115000800000000B115000854
:10024000B1150008B1150008B1150008B115000876
:10025000B1150008B1150008B1150008B115000866
:10026000B1150008B1150008B1150008B115000856
:10027000B1150008B1150008B11500080000000014
:10028000B1150008B1150008B1150008B115000836
:1002900000000000B1150008B1150008B1150008F4
:1002A000B1150008B1150008B1150008B115000816
:1002B000B1150008B1150008B1150008B115000806
:0C02C000B1150008B1150008B1150008C8
:1002D00010B5054C237833B9044B13B10448AFF380
:1002E00000800123237010BDB00100240000000035
:1002F0005CED010808B5034B1BB103490348AFF39C
:10030000008008BD00000000B40100245CED01087D
:1003100001F0FF01102A2BDB10F0070F08D010F8B6
:10032000013B013A8B422DD010F0070F42B3F6D1BA
:10033000F0B441EA012141EA014122F007047FF0D3
:1003400000070023F0E80256083C85EA010586EA2A
:10035000010685FA47F5A3FA87F586FA47F6A5FA66
:1003600087F68EB9EED1F0BC01F0FF0102F0070272
:1003700032B110F8013B013A83EA010313B1F8D11D
:100380000020704701387047002D06BF35460338FE
:10039000073815F0010F07D1013015F4807F02BF37
:1003A000013015F4C03F0130F0BC0138704700BF88
:1003B00053B94AB9002908BF00281CBF4FF0FF31CC
:1003C0004FF0FF3000F074B9ADF1080C6DE904CEC8
:1003D00000F006F8DDF804E0DDE9022304B0704720
:1003E0002DE9F047089D04468E46002B4DD18A42E8
:1003F000944669D9B2FA82F252B101FA02F3C2F11B
:10040000200120FA01F10CFA02FC41EA030E9440AB
:100410004FEA1C48210CBEFBF8F61FFA8CF708FBCC
:1004200016E341EA034306FB07F199420AD91CEBA4
:10043000030306F1FF3080F01F81994240F21C81D6
:10044000023E63445B1AA4B2B3FBF8F008FB10331E
:1004500044EA034400FB07F7A7420AD91CEB040453
:1004600000F1FF3380F00A81A74240F20781644423
:10047000023840EA0640E41B00261DB1D4400023A8
:10048000C5E900433146BDE8F0878B4209D9002D0C
:1004900000F0EF800026C5E9000130463146BDE896
:1004A000F087B3FA83F6002E4AD18B4202D3824200
:1004B00000F2F980841A61EB030301209E46002DAF
:1004C000E0D0C5E9004EDDE702B9FFDEB2FA82F204
:1004D000002A40F09280A1EB0C014FEA1C471FFA62
:1004E0008CFE0126200CB1FBF7F307FB131140EA49
:1004F00001410EFB03F0884208D91CEB010103F116
:10050000FF3802D2884200F2CB804346091AA4B2D7
:10051000B1FBF7F007FB101144EA01440EFB00FEAB
:10052000A64508D91CEB040400F1FF3102D2A64510
:1005300000F2BB800846A4EB0E0440EA03409CE7AF
:10054000C6F12007B34022FA07FC4CEA030C20FA5C
:1005500007F401FA06F31C43F9404FEA1C4900FA7C
:1005600006F3B1FBF9F8200C1FFA8CFE09FB1811F9
:1005700040EA014108FB0EF0884202FA06F20BD96C
:100580001CEB010108F1FF3A80F08880884240F2BC
:100590008580A8F102086144091AA4B2B1FBF9F000
:1005A00009FB101144EA014100FB0EFE8E4508D9FB
:1005B0001CEB010100F1FF346CD28E456AD9023880
:1005C000614440EA0840A0FB0294A1EB0E01A14265
:1005D000C846A64656D353D05DB1B3EB080261EBD3
:1005E0000E0101FA07F722FA06F3F1401F43C5E9AD
:1005F000007100263146BDE8F087C2F12003D840E3
:100600000CFA02FC21FA03F3914001434FEA1C4724
:100610001FFA8CFEB3FBF7F007FB10360B0C43EA16
:10062000064300FB0EF69E4204FA02F408D91CEBC6
:10063000030300F1FF382FD29E422DD902386344C4
:100640009B1B89B2B3FBF7F607FB163341EA034164
:1006500006FB0EF38B4208D91CEB010106F1FF38B3
:1006600016D28B4214D9023E6144C91A46EA0046AA
:1006700038E72E46284605E70646E3E61846F8E63C
:100680004B45A9D2B9EB020864EB0C0E0138A3E785
:100690004646EAE7204694E74046D1E7D0467BE766
:1006A000023B614432E7304609E76444023842E7DE
:1006B000704700BF014900200AF0C0BC5D1A000865
:1006C00008B501F02FFE642009F061F8FBE7000097
:1006D00007B54FF6FF730190012201A9034808F006
:1006E000A0FA019803B05DF804FB00BFC00300242A
:1006F00070B59CB04C22002109A81DF00BFB2022F4
:10070000002101A81DF006FB042006F0A7FA214AEB
:1007100000230093936923F4404343F4004393611F
:10072000936903F440430093009B93699904FCD5BB
:10073000194A022400253021936A082609A823F0CB
:10074000030343F00203936201224FF480331894B1
:100750001B95CDE909230523CDE91244CDE91431D8
:10076000CDE91623CDE9196506F0BEFA3F22032331
:10077000214601A8CDE9012340234FF48062CDE951
:100780000356CDE90533CDE9072306F0ADFD1CB0D6
:1007900070BD00BF004802580044025800B5AFB019
:1007A0000021982208A81DF0B5FA02234FF000722C
:1007B00001A8CDE901230F22CDE90533CDE90323BB
:1007C000C023079340F6863309932023139307F041
:1007D00011F82FB05DF804FB2DE98048A1B010227C
:1007E0000021012513A800241DF094FA1C2703F012
:1007F00049FF4FF01051D64B13A8ADF84C500326CB
:10080000CDE91413D34B169303F05AFF4FF0E04396
:1008100013A88DF857401493ADF85A408DF84D50F9
:100820008DF8547003F04CFF022313A88DF8576025
:100830008DF84D3016238DF8543040F20113ADF889
:100840005A3003F03DFF4FF0104313A88DF8574086
:100850001493ADF85A4004248DF84D608DF854700F
:1008600003F02EFF192313A88DF84D408DF8543056
:100870008DF857608DF85A5003F022FF204603F0A0
:100880000FFFB54B5A6912F4003211D1BFF34F8FED
:10089000BFF36F8FC3F85022BFF34F8FBFF36F8F3B
:1008A0005A6942F400325A61BFF34F8FBFF36F8F22
:1008B000A94A536913F4803323D1C2F88430BFF3BB
:1008C0004F8FD2F8803043F6E074C3F3C900C3F30E
:1008D0004E335B0103EA0406014646EA817501399D
:1008E000C2F86052F9D2203B13F1200FF2D1BFF3CE
:1008F0004F8F536943F480335361BFF34F8FBFF37E
:100900006F8F03F01BFE0024FFF7F2FE0126FFF7B6
:1009100045FF1422002113A81DF0FCF98F4B48F26B
:1009200008018F48D3F8E0204FF003084FF0080B80
:100930004FF4806942F0020220278A4D4FF0180AD6
:10094000C3F8E020D3F8E02002F002020092009AFF
:10095000D3F8E02042F04002C3F8E020D3F8E020D2
:1009600002F040020192019AD3F8E02042F008021E
:10097000C3F8E020D3F8E02002F008020292029AC5
:10098000D3F8E02042F01002C3F8E020D3F8E020D2
:1009900002F010020392039AD3F8E02042F0010221
:1009A000C3F8E020D3F8E02002F001020492049A98
:1009B000D3F8E02042F08002C3F8E020D3F8E02032
:1009C00002F080020592059AD3F8E02042F004027A
:1009D000C3F8E020D3F8E02002F004020692069A61
:1009E000D3F8E02042F02002C3F8E0200022D3F840
:1009F000E03003F020030793079B04F03DF9002249
:100A00004FF44041584804F037F900224FF4806118
:100A1000564804F031F900220121554804F02CF920
:100A200001222021534804F027F94FF4004313A971
:100A30004B48CDE91336CDE9154403F095FF13A9D2
:100A400047481594CDF85880CDE913B603F08CFFD4
:100A50004FF4404313A94448CDE91336CDE9154876
:100A600003F082FF13A94148CDE91396CDE915445F
:100A700003F07AFF13A93E48CDE91366CDE9154886
:100A800003F072FF13A93B48CDE91376CDE9154475
:100A900003F06AFF3848394B848003600662C0E97E
:100AA000054403F039FE4FF440333548354AC0E978
:100AB0000264C0E9002303F08DFE3422214613A80E
:100AC0001DF028F9304B2821352040F2152C40F23A
:100AD000352EAC862C6185F83640C5E900340923F3
:100AE000C5E905130B23C5E9070340F21B1328468C
:100AF000C5E909C340F21D13C5E90244C5E90BE38A
:100B000005F030F9FF214FF488734FF4F072CDF8FF
:100B100068904FF0050928461394ADF87C408DF895
:100B20007E401A4DCDE918144FF0E041CDE91D2368
:100B3000CDE91B91CDE9142413A922464FF00409F5
:100B4000CDE9163605F0D9F95246214613A81FE023
:100B5000120000030100010100ED00E00044025812
:100B6000001802586002002400040258000C0258C9
:100B700000000258001C0258D4010024004C025806
:100B8000F801002400100052001000500803002457
:100B90001DF0C0F8634B2846AC60EC63C5E9003932
:100BA0004FF08073C5E903370227C5E90744C5E95B
:100BB0000574C5E90974C5E90B44C5E90DB405F030
:100BC00029FB4FF0011341F2883213A9169303F564
:100BD0007F03284615961793CDE9136605F0A2FD0D
:100BE000284605F08BFB20468DF838608DF839607B
:100BF00003F0FEF80EA9204603F0ECF9204603F0BE
:100C0000BFF85246214613A81DF084F81022214651
:100C10000AA81DF07FF8142221460EA81DF07AF8CC
:100C2000414D424B2846AC60C5E900394FF0806326
:100C3000C5E9033A17234FF0805AC5E90BA34FF4D7
:100C4000C873C5E90594EB63C5E90744C5E90974B0
:100C5000C5E90D44CDE9084405F0DCFA344B41F216
:100C6000883213A9169303F57F0328461597179327
:100C7000CDE9137705F056FD062341F288320AA923
:100C80002846CDF828800D96CDE90B3405F098FB69
:100C90004FF4405341F288320EA910934FF00053A5
:100CA00028460E9412930F94119605F0AFFB08A9F5
:100CB0002846089405F0C2FC1E4D4FF4E1331E4A4D
:100CC00028462C61C5E900230C23C5E90244C5E987
:100CD0000534C5E90744C5E9094408F034F821465C
:100CE000284608F09EF82146284608F0BEF8284617
:100CF00008F07CF800F05EFC00F05BFC08F0D2FC31
:100D00000E4A21460E4808F0F9FC0E4B0E4A2146C9
:100D100018600E4808F0F2FC0D4B186008F0D4FC87
:100D2000FEE700BF005000526403002400A0005200
:100D300002000100C003002400480040F4ED010857
:100D4000C1060008D0010024D0ED0108B915000843
:100D5000CC0100240268034B9A4201D103F01CBC71
:100D6000704700BF00100040704700000A4B82B07F
:100D70000F216FF00100D3F8F42042F00202C3F813
:100D8000F4200022D3F8F43003F002030193019B16
:100D900002B003F037BC00BF00440258026882B0C2
:100DA000094B9A420DD1A3F50063D3F8E02042F439
:100DB0000022C3F8E020D3F8E03003F400230193CD
:100DC000019B02B0704700BF004C02580F4B07B5A3
:100DD00002689A4217D10E4B05215A20D3F8D4202D
:100DE00042F01002C3F8D4200022D3F8D43003F02C
:100DF00010030193019B03F005FC5A2003B05DF83A
:100E000004EB03F031BC03B05DF804FB00100052AA
:100E1000004402582DE9F041BAB0044614220021E2
:100E200008A81CF077FFB42200210DA81CF072FF67
:100E30002268754B9A4240F0E3804FF00053012145
:100E40000DA80D930423CDE916130223CDE9183321
:100E50001A934FF440631B9306F0CCFC08B1FFF7E4
:100E600083FF6A4B002402260325D3F8E4200E27D3
:100E700008A9674842F008024FF05808C3F8E42078
:100E8000D3F8E42002F008020092009AD3F8E020A0
:100E900042F00202C3F8E020D3F8E02002F00202A0
:100EA0000192019AD3F8E02042F00802C3F8E02052
:100EB000D3F8E02002F008020292029AD3F8E02070
:100EC00042F01002C3F8E020D3F8E02002F0100254
:100ED0000392039AD3F8E02042F00102C3F8E02025
:100EE000D3F8E02002F001020492049AD3F8E02043
:100EF00042F04002C3F8E020D3F8E02002F04002C4
:100F00000592059AD3F8E02042F08002C3F8E02071
:100F1000D3F8E02002F080020692069AD3F8E0208F
:100F200042F00402C3F8E020D3F8E0300C9703F05D
:100F300004030793079B40F20333CDE90A45CDE94B
:100F4000083603F011FD492308A932480C97CDE972
:100F50000836CDE90A4503F007FD4BF6030308A95F
:100F60002D480C97CDE90836CDE90A4503F0FCFC85
:100F70004FF4807308A92948CDE908360D23CDE93F
:100F80000A450C9303F0F0FC4FF4814308A9244870
:100F90000C97CDE90836CDE90A4503F0E5FC48F6A3
:100FA000087308A91F480C97CDE90836CDE90A4512
:100FB00003F0DAFCC02308A91B480C97CDE90836DA
:100FC000CDE90A4503F0D0FC08A914480C97CDE9F7
:100FD0000886CDE90A4503F0C7FC102308A911488B
:100FE000CDE908360923CDE90A450C9303F0BCFC92
:100FF00040462246052103F005FB404603F034FB42
:101000003AB0BDE8F08100BF001000500044025823
:1010100000040258000C0258001002580000025848
:1010200000180258001C0258000802582DE9F0432D
:1010300091B00446142200210BA81CF06BFE23681B
:10104000884A934240F0B080874A13680133012BED
:1010500013600CD1854BD3F8D42042F40012C3F8AE
:10106000D420D3F8D43003F400130093009B7F4BBB
:10107000022503240927D3F8D4200BA97C48002695
:1010800042F480424FF00A084FF00409C3F8D4201C
:10109000D3F8D42002F480420192019AD3F8E020E0
:1010A00042F04002C3F8E020D3F8E02002F0400212
:1010B0000292029AD3F8E02042F00802C3F8E0203E
:1010C000D3F8E02002F008020392039AD3F8E0205C
:1010D00042F01002C3F8E020D3F8E02002F0100242
:1010E0000492049AD3F8E02042F02002C3F8E020F2
:1010F000D3F8E02002F020020592059AD3F8E02010
:1011000042F00202C3F8E020D3F8E03003F002031B
:101110000693069B4FF40073CDE90B35CDE90E47DE
:1011200003F022FCB0230BA95248CDF83C80CDE956
:101130000B35CDE90D6403F017FC0BA94E480F9752
:10114000CDE90B95CDE90D6403F00EFC40230BA90E
:101150004748CDF83C80CDE90B35CDE90D6403F06F
:1011600003FC4FF460530BA942480F97CDE90B35B0
:10117000CDE90D6403F0F8FB4FF480630BA93F4801
:101180000F97CDE90B35CDE90D6403F0EDFB0BA90D
:101190003B48CDF83C80CDE90B95CDE90D6403F0DB
:1011A000E3FB11B0BDE8F083364A9342F9D12E4AF1
:1011B00013680133012B13600CD12C4BD3F8D420CE
:1011C00042F40012C3F8D420D3F8D43003F400134F
:1011D0000793079B254B032402250926D3F8D42027
:1011E0000BA92348002742F40022C3F8D420D3F8E7
:1011F000D42002F400220892089AD3F8E02042F0AA
:101200004002C3F8E020D3F8E02002F04002099247
:10121000099AD3F8E02042F02002C3F8E020D3F886
:10122000E03003F020030A930A9B40F60303CDE964
:101230000E46CDE90B3503F097FB4FF4A0530BA9F5
:101240000B480F94CDE90B35CDE90D7403F08CFB01
:1012500041F21F030BA909480F96CDE90B35CDE9E3
:101260000D749CE7005000525004002400440258C2
:1012700000180258000C02580010025800140258BE
:101280000004025800A00052274A08B503689342A0
:101290002AD1264B1A68013A1A60254B2AB9D3F88D
:1012A000D42022F40012C3F8D420D3F8D4204FF471
:1012B0001071204822F48042C3F8D42003F03AFC95
:1012C00043F6B0011C4803F035FC04211B4803F031
:1012D00031FC4FF480611A4803F02CFC04211948BA
:1012E000BDE8084003F026BC174A93421AD10F4BC1
:1012F0001A68013A1A600E4B2AB9D3F8D42022F4A6
:101300000012C3F8D420D3F8D42041F60341094891
:1013100022F40022C3F8D42003F00CFC41F21F0198
:101320000748DDE708BD00BF00500052500400240C
:101330000044025800180258000C025800100258CD
:10134000001402580004025800A0005210B5B4B0B6
:1013500004461422002102A81CF0DCFCB422002167
:1013600007A81CF0D7FC2268194B9A422ED1022301
:1013700007A8079306F03EFA08B1FFF7F5FC154BF6
:1013800002A91548D3F8E82042F48022C3F8E820E7
:10139000D3F8E82002F480220092009AD3F8E020EB
:1013A00042F00802C3F8E0204FF44072D3F8E03076
:1013B00003F008030193019B0223CDE902230023DC
:1013C000CDE904330723069303F0CEFA34B010BD01
:1013D0000048004000440258000C02580F2810B585
:1013E00004468AB002D901200AB010BD014600228D
:1013F000362003F007F9362003F036F9184B69461A
:1014000002A81C60174BD3F8E82042F01002C3F882
:10141000E820D3F8E83003F010030193019B06F0B5
:10142000CFF8079BC3B906F0A7F80F4C0F4B23600A
:1014300040F2E733E3600E4BB0FBF3F001380023DA
:10144000606020462361A36007F018F90028CAD124
:10145000204606F0ABFFC7E706F08EF84000E4E751
:1014600048000024004402585404002400100040A6
:1014700040420F007047FEE7FEE7FEE7FEE77047D9
:10148000014806F0DDBF00BF54040024014803F00A
:10149000F9BC00BF881B0024014804F0D1BC00BF88
:1014A00060020024014803F0D4B900BFF801002411
:1014B0000120704708B51CF0D9FA162303604FF0DD
:1014C000FF3008BD08B51CF0D1FA16230360FEE713
:1014D00070B50D4614460E46731B9C4201DC204637
:1014E00070BDAFF3008006F8010BF5E770B50D464F
:1014F00014460E46731B9C4201DC204670BD16F854
:10150000010BFFF7E5F8F5E74FF0FF3070474FF4B8
:10151000005300204B607047012070470020704747
:101520000B4A0346116810B509B90A4911601068E1
:1015300009490A4C0344091B8B4206D91CF096FA50
:101540000C2303604FF0FF3010BD1360FCE700BFB9
:10155000A0040024407700240000052400100000AF
:10156000DFF834D002F094FF002103E00B4B5B580E
:10157000435004310A480B4B42189A42F6D30A4AA8
:1015800002E0002342F8043B084B9A42F9D31CF0D6
:101590007BFBFFF721F97047000005247C1102084E
:1015A00000000024B0010024B00100244077002492
:1015B000FEE7704700F0D8BC00F046BD40687047B9
:1015C000416070474FF0E022D2F8FC3D43F0807359
:1015D000C2F8FC3D054B064AD3F8B01F0A43C3F8D6
:1015E000B02F1A6842F001021A607047001000E044
:1015F00055CEACC5511A01EB5301B1FBF3F0704766
:10160000014B5868704700BF001000E0704710B5EC
:1016100004460C211CF0C9F9204610BD036810B522
:101620001B69044631B19847A26863689B1A184445
:10163000606010BD9847A060FBE770471FB50823A6
:1016400000206946CDE90230054B1B880093054B0D
:101650001B88019302F038FE05B05DF804FB00BF63
:10166000B6740024B874002410B5044604211CF09C
:101670009CF9204610BD30B585B000200D461446BB
:1016800001A90390CDE9010002F0A0FE40B14FF0A6
:10169000500383F31188BFF36F8FBFF34F8FFEE7C3
:1016A000019820B1029B01202B60039B236005B0B1
:1016B00030BD0000032825D8DFE800F0020B131C22
:1016C000114B012111481A68B2FA82F2520903F053
:1016D000D3BA0D4B08210E485A68B2FA82F2520969
:1016E000F5E7094B4FF480419A68B2FA82F2520949
:1016F0000848ECE7044B4FF40041DA68B2FA82F292
:101700005209F5E7704700BFA40400240000025806
:101710000018025800040258032825D8DFE800F01A
:10172000020B131C114B012111481A68003A18BF13
:10173000012203F0A1BA0D4B08210E485A68003A65
:1017400018BF0122F5E7094B4FF480419A68003A2F
:1017500018BF01220848ECE7044B4FF40041DA6857
:10176000003A18BF0122F5E7704700BFA404002427
:10177000000002580018025800040258032811D82B
:10178000DFE800F00206090D0121074803F079BAED
:1017900008210648FAE74FF480410548F6E74FF480
:1017A0000041FAE7704700BF0000025800180258D5
:1017B0000004025808B5032815D8DFE800F0020A33
:1017C0000D110121094803F051FA431E58425841B6
:1017D00008BD08210648F6E74FF480410548F2E7C6
:1017E0004FF40041FAE70020EFE700BF0000025885
:1017F000001802580004025870B5084D0024012654
:10180000E0B2FFF7D7FF18B12B68012B18BF2E608D
:1018100001340435052CF3D170BD00BFA4040024AD
:10182000012380F8741080F87530704700207047ED
:1018300041640039024B18BF01211970704700BF85
:10184000BB74002400207047836B0BB10846184717
:1018500070474FF6FF707047406803689B691847F0
:101860007047000038B5044600F096FC0A4A4FF075
:10187000E04123682046D3F88850084BA84704F17C
:101880007C05FFF7B9FF2846FFF79CFE0123256181
:1018900084F86C3038BD00BF0000067000000C708A
:1018A00008B503680446D3F880309847236820467B
:1018B0009B6F984700F02AF9236820461B6F9847D2
:1018C00001224FF48061084803F0D6F901224FF459
:1018D0000041064803F0D0F900F018F923682046CB
:1018E0001B6F9847F8E700BF000C02580018025819
:1018F00010B504460FF0A2F823682046D3F8AC30A8
:10190000BDE81040184700F039BC00F03DBC0000B5
:1019100070B500F097FC10490023C1F88430BFF384
:101920004F8FD1F8803043F6E074C3F3C900C3F39E
:101930004E335B0103EA0406024646EA8275013A29
:10194000C1F87452F9D2203B13F1200FF2D1BFF34A
:101950004F8FBFF36F8F70BD00ED00E000F0EABB6A
:1019600000F092BC00F07CBC00F0EEBB0EF0CEBAF2
:1019700010B5044688211CF018F8204610BD90F8D8
:1019800077301BB1406803681B68184718467047DA
:1019900090F834100D4B10B590F874401A788C42C2
:1019A00009D03AB90A490B4A0888148810800122E4
:1019B0000C801A7010BD002AFCD0064A0449148815
:1019C00008880C8010800022F3E700BFB474002464
:1019D000B2740024B074002470B50D46194635B9B0
:1019E000094B40F2D221094A09481CF00DF8C0E920
:1019F0000F52003A074B18BF01221A700368BDE866
:101A00007040D3F88C30184758EE010890EE01086A
:101A1000DEEE0108BA74002408B5094B1B888B421E
:101A200003D8084B1B88934205D9074B9E21074AD0
:101A300007481BF0E9FF074B1980074B1A8008BDC8
:101A4000B0740024B274002423EF010886EF01086B
:101A5000DEEE0108B6740024B8740024014608B50F
:101A6000034B186801B101210FF002F8012008BDF5
:101A7000BC7400240121002208B5084607F093FE3B
:101A80000A4B186028B90A4B28210A4A0A481BF059
:101A9000BBFF00220421012007F022FF074B186042
:101AA00018B9074B2C21034AF0E708BDB8040024FD
:101AB000A4F00108EDF001081CF10108B4040024B1
:101AC0006FF10108024B4FF0FF31186807F0B5BE07
:101AD000B8040024014B186807F0DABEB8040024EB
:101AE000024B0021186807F0A8BE00BFB80400240C
:101AF000FFF7F0BF0023034803491A46006807F0C8
:101B00002ABF00BFB40400240400002413B500233E
:101B1000074C01A91A46206807F04DFF4FF0FF332C
:101B2000002201A9206807F046FF02B010BD00BFE7
:101B3000B404002403685B6C1847012070470368F5
:101B40009B6A184740F2EF3070470000054B4FF09A
:101B500080620360044BC3F88820BFF34F8FBFF34C
:101B60006F8F704714F3010800E100E010B50446E0
:101B70004FF45A61FFF7EAFF20461BF016FF20469C
:101B800010BD00000F4B82B0D3F8D42042F01002F9
:101B9000C3F8D420D3F8D42002F010020192019AA5
:101BA000DA6F42F01002DA67DA6F22F01002DA67B9
:101BB000054B064A1A62064B4FF080629A6002B0EB
:101BC000704700BF00440258F8010024D51B0008EC
:101BD00000E100E0024B1B68586803685B69184726
:101BE000BC74002470B504460A4B0C300026254610
:101BF000602260602672667245F8203B29460FF02D
:101C000073F804F55A63EE602435AB42FBD12046ED
:101C100070BD00BF14F3010808B50B290BD8DFE82D
:101C200001F01206100A0A0A0A080808080801202A
:101C300008BD0520FCE7054B6621054A05481BF059
:101C4000E3FE0020F4E70220F2E700BFB1F1010853
:101C5000CCF1010816F2010808B50A2909D8DFE815
:101C600001F010060E080808080606060600012006
:101C700008BD054B8721054A05481BF0C5FE00201D
:101C8000F6E70220F4E700BFB1F1010867F20108AE
:101C900016F201082DE9F8434F7F0C46814639467C
:101CA000FFF7BAFF94F81E80054648464146FFF705
:101CB000B3FF414606464846FFF7CEFFA18A628B36
:101CC000424B521A1A649A61228B521A1A61E28AA2
:101CD000586342EA014220695A646268D863DA6054
:101CE000216894F81CC080294FEA0C6226D010D8D5
:101CF000202945EA020462D0402960D004295ED040
:101D00002A43324B474542F40032DA615BD0304A15
:101D100040E0B1F5807F07D0B1F5007FF0D142F40B
:101D2000003242F0090203E042F4003242F00A02BB
:101D3000DA61E2681A625E6258612AE02A43A468A6
:101D400042F40032DA61221D5E625861DA62227862
:101D500042B1012A21D01F4B40F201111E4A1F48F7
:101D60001BF052FEDA690120618822F47F420139BA
:101D700022F0100242EA0122DA61144BDA6942F0E1
:101D80002002DA61DA699206FCD410229A600028F7
:101D9000BDD0134A1A60BDE8F8836288BCF1FF0029
:101DA000D96902F1FF3418BF012021F47F4222F0EB
:101DB000100242EA042242F01002DA61DDE744F444
:101DC0000034DC61B7E740F20122E3E70010005283
:101DD00001020100B2F20108CCF2010816F201087A
:101DE0000102020070B50C46897FFFF735FF124BE8
:101DF000A58AE18A628B41EA05415863521B596406
:101E00002169D9631A642668E568082E0DD19A61A4
:101E10001A615862094A207F42EA0062DA61084A80
:101E20001D625961D9601A6070BD0022D8611A61C3
:101E3000044A9D63F7E700BF00100052090001004B
:101E40000102020001020300012070470C207047CC
:101E50000C2303FB0100083070470C2303FB010037
:101E60000830704701207047E0207047E02303FBF3
:101E7000010008307047E02303FB01000830704781
:101E8000012070471020704700EB011008307047A8
:101E900000EB011008307047084600F047BD000015
:101EA000034B10B5044603600DF07DFD204610BDC8
:101EB000CCF3010810B50446FFF7F2FF14212046C9
:101EC0001BF073FD204610BD034B10B504460360A4
:101ED0000DF069FD204610BD98F3010810B50446C9
:101EE000FFF7F2FFE82120461BF05FFD204610BD02
:101EF000034B10B5044603600DF055FD204610BDA0
:101F000064F3010810B50446FFF7F2FF18212046DC
:101F10001BF04BFD204610BD084B10B50446036076
:101F200000F58A70FFF7BCFF04F12C00FFF7CCFF2F
:101F300004F11400FFF7DCFF204610BD00F4010897
:101F400008B50248FFF7E8FF08BD00BFC004002441
:101F500010B50446FFF7E0FF4FF4217120461BF057
:101F600024FD204610BD00002DE9F34100F06AFB7E
:101F70000024054600F06AFB234601462246284617
:101F8000009413F06FFC254B254A2046254D1A601E
:101F900000F056FF244813F01DFB2B78BFF35B8F36
:101FA000DB0735D428461BF002FD88B31F4C204BBD
:101FB00004F5967604F1140004F12C0804F58A77F0
:101FC00023606060C4F80880E76026610DF0ECFCD7
:101FD000184B404663610DF0E7FC174B3846E3624F
:101FE0000DF0E2FC154B04F59470C4F8143100F0C8
:101FF000A3FF224604F59471304600F093FF30466B
:1020000000F094FC0E481BF01DFD28461BF0DBFC85
:102010000C4802B0BDE8F041FFF724BC187500245D
:1020200070150024BC04002408000024C00400240F
:1020300000F4010864F3010898F30108CCF30108E7
:10204000411F0008E81400240148FFF729BC00BF25
:10205000E814002470B5264E264B274C3046274DF9
:102060002360FFF7BFFD284615F0CAFD244B002270
:102070004FF4807123481A861A6683F86C201A6719
:10208000DC60C3E912122049C3E919124FF08071D4
:102090005967012183F878101C490B604FF4F071E7
:1020A00001801B4801804FF488711A48C3E904225B
:1020B000C3E90622C3E90822C3E90A22C3E90E22C2
:1020C000C3E91022C3E91422C3E91622C3E901655A
:1020D00001801148C3F880200180104983F8342022
:1020E0000A70C3F884200E490E4A1960DA6770BD81
:1020F0004807002448EE0108440700247415002412
:10210000E8140024B074002401000001BC74002411
:10211000B6740024B2740024B8740024B47400248B
:10212000D4EF010820EE01080148FFF70FBD00BF02
:1021300048070024034B902283F85A2383F858233E
:10214000704700BF00E100E0094A0A49D3680A4825
:10215000C3F30A03013B9BB20B801169C1F30A016F
:10216000013901801364536B43F0010353637047DB
:1021700000100050D0150024CE150024014BD3F8D8
:10218000AC00704700100050024B0122C3F8AC10A5
:102190005A6270470010005070B504460DF00BFFF6
:1021A00023685D6E10F0C4FE01462046A8472368F0
:1021B0002046054AD3F888504FF0E0410023AC4652
:1021C000BDE87040604700BF000006700DF0DABE49
:1021D00090F84B3013B1024B01221A700DF0DEBEA5
:1021E000CC1500240DF0F3BF1049002370B5C1F8E1
:1021F0008430BFF34F8FD1F8803043F6E074C3F3DF
:10220000C900C3F34E335B0103EA0406024646EA03
:102210008275013AC1F87452F9D2203B13F1200FB4
:10222000F2D1BFF34F8FBFF36F8F70BD00ED00E0B1
:10223000034B5B69DB0301D5FFF7D6BF704700BFD7
:1022400000ED00E008B50DF067FE044B5B69DB03B1
:1022500003D5BDE80840FFF7C7BF08BD00ED00E0AB
:10226000084B4FF08062C3F88820BFF34F8FBFF355
:102270006F8F4FF08072C3F88820BFF34F8FBFF38A
:102280006F8F704700E100E0034B4FF080629A606F
:102290004FF080729A60704700E100E010B5144C76
:1022A000236823B3134B144A1B6C11888B4213D140
:1022B000124B198803F04EFE226892F86630013303
:1022C00082F86630FFF716FC20680EF0B7FB00209E
:1022D000BDE81040FFF7EEB903F03CFE206803684C
:1022E0001B6A98470020BDE81040FFF715BA10BDE3
:1022F000BC74002400100050D0150024CE1500241A
:1023000004290AD0052904D0022905D1044B1970EB
:102310007047034B03221A707047014B0122FAE702
:10232000D215002408B5002219491A480AF014FBF6
:1023300008B1FEF719FD184916480AF057FB08B115
:10234000FEF712FD154913480AF050FB08B1FEF7DD
:102350000BFD13490F480AF049FB08B1FEF704FDD5
:1023600010490C480AF042FB08B1FEF7FDFC0E498B
:1023700008480AF03BFB08B1FEF7F6FC05480AF0F6
:10238000D1FB18B1BDE80840FEF7EEBC08BD00BFA8
:1023900001230008D41500245000002470000024FC
:1023A000B000002490000024D000002430B5B5B067
:1023B00004461422002102A81BF0ACFCB422002128
:1023C00007A81BF0A7FC22681E4B9A4238D14FF495
:1023D000802307A807934FF48013279305F00AFA88
:1023E00008B1FEF7C1FC184C04F076FC002502A9E8
:1023F000D4F8E030154843F00103C4F8E030D4F8D5
:10240000E030049503F001030093009B4FF4007348
:10241000CDE9023502F0A8FAD4F8D8304D202A468A
:1024200043F000730521C4F8D830D4F8D83003F055
:1024300000730193019B02F0E5F84D2002F014F9BE
:1024400035B030BD0000044000440258000002587E
:10245000D0F800030AF0C3BED0F800030AF0DEBED5
:10246000D0F800030AF0EFBED0F800030AF00BBF6B
:10247000D0F800030AF0C1BED0F800030AF0CABECB
:1024800010B590F89C350446EBB910484FF0100C8D
:102490000F4AC4F8A00502600122C0F8004303619E
:1024A00003624363C0E902C20222C0E9062302F0CC
:1024B00039FC08B1FEF758FC044803F006F8014661
:1024C00020460AF089FE002010BD00BF881B0024B2
:1024D0000000044008B5D0F8A00502F0F9FF032879
:1024E00028BF0120C0B208BDD0F8A00502F0E8BFA7
:1024F000D0F8A00502F0DEBF08B590F89C3513B9FE
:10250000084600F079F8C82002F058F8002008BD0D
:10251000D0F8A0352C2000FB013191F83B301BB1E5
:1025200081F854200020704781F85520FAE7D0F850
:10253000A0352C2202FB013191F83B3013B191F808
:102540005400704791F85500704702F037B800000A
:1025500003289ABF014B185C022070470CF4010855
:1025600008B5D0F8A00502F07BFFBDE80840FFF7F2
:10257000EFBF08B5D0F8A00502F087FFBDE808401E
:10258000FFF7E6BF08B5D0F8A00502F090FFBDE860
:102590000840FFF7DDBF7FB59DF820409DF824502F
:1025A000BDF828600094CDE90156D0F8A00502F0EE
:1025B00071FB04B0BDE87040FFF7CABF08B5D0F8A2
:1025C000A00502F09DFBBDE80840FFF7C1BF7FB545
:1025D000BDF828509DF82C609DF82040CDE90256AA
:1025E000099DCDE90045D0F8A00502F0E7FB04B055
:1025F000BDE87040FFF7ACBF021E4FF0200102485B
:1026000018BF012202F038BB001C0258704710B5F9
:10261000044604211BF0C9F9204610BD012908B564
:1026200006D0022908D059B900F056FC006808BD50
:1026300000F052FC4068FAE700F04EFC8068F6E7D4
:102640000020F4E70048704724F401080120704797
:1026500013B5002451B1036801AA01948DF8034019
:102660009C680DF10303A04702B010BD0846FBE7CC
:102670004089704780897047808870478379808857
:10268000184480B27047C07900F07F007047C0796D
:10269000C0097047704710B5044608211BF085F942
:1026A000204610BD7047704700F59673086849686A
:1026B00003C3704770477047416070477047000020
:1026C000064BC0F84401C0F848310023C0F84C3133
:1026D00000F5A073C0F83C31704700BF81270008A7
:1026E0000123037270477047704710B44168034676
:1026F000C2689B68541001EB6200D20748BF0A59B8
:102700005DF8044B48BFD358184743682BB1836822
:102710002BB9C06800F001007047184670470120CF
:10272000704710B504460C211BF03FF9204610BD40
:1027300010B5044610211BF038F9204610BD10B525
:1027400004464FF4AC711BF030F9204610BD08B5BB
:1027500010F0EEFBBDE8084010F090BF10B5044645
:10276000D0F83C0158B10368DB68984738B1D4F819
:102770003C0103689B6898470023C4F83C3110BDB6
:102780002DE9F14FD0E9545A0746A86803681B6A3F
:102790009847DF2805D8454BA321454A45481BF0FB
:1027A00033F9686803681B6A98470F2803D8424BBF
:1027B000A4213F4AF2E7E86803681B6A98470B28A0
:1027C00003D83E4BA5213A4AE8E7DFF8F89010F02D
:1027D000AFFB10F0B3FBD9F8000010B10368DB6861
:1027E0009847D9F8000010B103681B689847DFF8D4
:1027F000D880D8F8000010B103685B699847D7F813
:10280000380110B103685B689847D8F8000010B130
:1028100003681B689847D7F8380110B103689B68B4
:102820009847E86800214FF0000B03685B6A9847FF
:10283000234B0446C0F804B00360594680F808B042
:10284000A86803685B6A9847064600F0A1FB6868C1
:10285000594603685B6A98470546314600F07EFB9F
:10286000C9F80040C7F83851C8F80060E5B12B1D21
:10287000CAF8003030463368C5F808A0DB68F56355
:1028800098472B6828461B6898472146304611F028
:1028900035FF236820461B699847236820465B69FB
:1028A00001B0BDE8F04F18472B46E1E748F40108B6
:1028B000D6F40108DAF5010821F60108C4F601088A
:1028C000D4F70108FC740024F8740024F8B5044619
:1028D00017460E4610F04EFB104B00251C60294693
:1028E0000F4BC4E954760F4E236030680E4BC4E999
:1028F0005255C4E950350368C4E94E559B68984762
:10290000284600F09DFA336893F876200AB1D86C17
:1029100000B9986816F025FA2046F8BD087500241D
:1029200088F70108BC74002470F70108064BC0F852
:102930004401C0F848310023C0F84C3100F5A073C1
:10294000C0F83C31704700BF81270008006A70471B
:10295000406A704770478B888069DB0A0A6850F8C4
:1029600023001044704710B5C2B1137BB3B1547B40
:10297000D27A240204F4E0641443C26998B202EBF0
:10298000840213888B4202D192F9020010BD05D84F
:102990000138043280B20028F3D1F7E70020F5E7D0
:1029A00010B5044628211BF000F8204610BD000099
:1029B00030B589B00446BDF850500695BDF84C506E
:1029C00005959DF8405004959DF83C5003959DF861
:1029D000385002959DF8345001959DF8305000957F
:1029E00011F0ECFA064B20462360119BA361129B69
:1029F000E361159B2362169B636209B030BD00BF83
:102A0000F8F701080020704781807047C180704747
:102A10000181704741817047704770477047704728
:102A2000704710B4C4880368121B84885B6D091B4F
:102A300012B25DF8044B09B218474FF6FF73838159
:102A40004FF0FF3303621368C36110607047704733
:102A5000704770477047704790F825201AB190F87A
:102A6000242002B1186070477047704710B50446C3
:102A7000E0211AF09AFF204610BD036870B50446A5
:102A80001B6B154698472368204629465B6BBDE8BB
:102A90007040184770B504461D46BDF91060FFF739
:102AA000ECFF2368294620469B6B984723683146F4
:102AB0002046DB6BBDE8704018470000094A4FF420
:102AC0008071026000228184FF21826280F82610DA
:102AD000C0E90122C0E90322C0E90522C0E90722BA
:102AE000704700BFB80A02082DE9F04F04468BB0CA
:102AF000002511F057FC26463C4B04F16C08E563B9
:102B000046F8403B3046FFF7D9FF4046FFF7D6FF77
:102B10004FF480734FF0FF3A4FF4887BA4F8BC3039
:102B20004FF07F49324B04F198072A462946C4F8F2
:102B3000983030462F4BC4F8C850C4F8C0304FF618
:102B4000FF73A4F8D050A4F8C4304FF47F03C4F846
:102B5000D450C4F8CC304FF4F073CDF800B0C4E9D1
:102B60002755C4E92955C4E92B55C4E92D55C4E9B5
:102B700036A5FFF78FFF4FF4F0732A4629464046EB
:102B8000C4F86890CDF800B0FFF784FF2A462946C4
:102B90003846C4F894A0FFF770FFC4F8C8900DF150
:102BA00010093946A4F8CC5048460EF0E9F904F172
:102BB000D40399E8070083E807000E4B08A93846BC
:102BC000ADF8245008930EF06BFC201D31460390A5
:102BD0000CF0FEFE414603980CF0FAFE03983946CD
:102BE0000CF0F6FE20460BB0BDE8F08F50F801085F
:102BF000280A020840F401087047000030B5154D5E
:102C00008DB02C78BFF35B8F14F001041ED12846E1
:102C10001AF0CDFED0B13F2301220F4907930F4B8D
:102C20000F4806930F4B089403940094CDE9044396
:102C30000423CDE90944CDE901320A23FFF7B8FEA8
:102C400009481AF0FFFE28461AF0BDFE04480DB0F0
:102C500030BD00BF8C1E0024E01002082C110208B9
:102C6000901E002438110208F92B0008704700005C
:102C700030B5154D8DB02C78BFF35B8F14F0010487
:102C80001FD128461AF093FED8B13F2301220F49E5
:102C900007930F4B0F4806930F4B0894039400942F
:102CA000CDE904430423CDE90944CDE901321423DD
:102CB0000322FFF77DFE09481AF0C4FE28461AF0E9
:102CC00082FE04480DB030BDB81E0024F01002088A
:102CD00030110208BC1E00243C1102086D2C0008B3
:102CE0007047000030B5154D8DB02C78BFF35B8F69
:102CF00014F001041ED128461AF059FED0B13F232A
:102D000001220F4907930F4B0F4806930F4B08946E
:102D100003940094CDE904430423CDE90944CDE9AB
:102D200001322823FFF744FE09481AF08BFE28469B
:102D30001AF049FE04480DB030BD00BFE41E002467
:102D40001C11020834110208E81E00244011020878
:102D5000E12C000800207047002070470EB403B536
:102D600003AB002153F8042B019310F057FF02B07E
:102D70005DF804EB03B070470CB407B504AB53F82F
:102D8000042B019310F04AFF03B05DF804EB02B08E
:102D900070470000436C10B5044673B3038F2BB922
:102DA000184BC021184A19481AF02EFEC38E00EBAA
:102DB00043035B8C0BB312F0D1F9238F012B03D8A3
:102DC000134BC521134AEEE7E28E40F63F10531C29
:102DD0009BB2092B194688BFA3F10A0104EB4101FC
:102DE000498C814209D10A2B04EB420228BF0023FF
:102DF000508C04EB4303588451842046BDE81040B6
:102E000012F0AEB87CF8010885F8010830F9010825
:102E10007AF9010888F9010812F06BB810B586B08C
:102E200002AC84E806001A460AAB214605930193DA
:102E3000099B0093089B0FF0B1FB06B010BD00008A
:102E400038B518BB124B13481B681349B3B11A6845
:102E50009C681A441C4402605A681A440A600F4B6A
:102E600000221A8000F038F8054600F033F80C4BC9
:102E70001C600C4B1D600C4B188007E00B4B036073
:102E80000B4B0B600B4B1C68002CE8D138BD00BF0E
:102E9000101F0024141F0024181F00241C1F0024CE
:102EA0000C750024147500241075002448110208C4
:102EB0004411020854110208044B1B6853F8210006
:102EC000034B1B6803EB4000704700BF181F002432
:102ED000141F00240120704700487047201F002461
:102EE00010B5054CFFF7C4FE2060FFF7FBFE6060E5
:102EF000FFF784FEA06010BD201F0024704710B5AE
:102F000004464FF4AC711AF050FD204610BD10B5C8
:102F10000446D0F8540100F012F82046BDE81040F5
:102F20000FF0B4BE10B50446FFF7D0FC014B2046AD
:102F3000236010BD64FA01080022026070477047E8
:102F4000704704387047704710B5044610211AF0D6
:102F50002CFD204610BDA0F10400F5E70022C16061
:102F60008260044A10B502F1080420320460426015
:102F700010BD00BFA8FA010870477047FFF775BD84
:102F800010B50446E0211AF010FD204610BD0000E7
:102F900010B50446FFF7A8FD014B2046236010BD85
:102FA000D8FA010840F201134FF4F07200200B80B0
:102FB00005238B704FF48873C1E90123704790F8A3
:102FC0002430012B04BF002380F8243000207047F8
:102FD0000020704710B404690089A4465DF8044BD2
:102FE000604710B4C4680089A4465DF8044B60478C
:102FF0002DE9204300F1180889460978404600F081
:10300000FBF8054699F80410404600F001F9054424
:1030100099F80810404600F007F9054499F80C109B
:10302000404600F00DF9054499F81010404600F0B4
:1030300013F9054499F81410404600F019F9C542F7
:1030400014BF4FF0FF300020BDE82083183000F09F
:1030500027B937B500F118050C4601A9284600F03C
:10306000BEF808BB9DF80430052B98BF1846042312
:103070002060032128460DEB030200F09DF8B0B953
:103080009DF804309DF805201B0203F47063134380
:103090009DF8072063609DF806301B0203F47063FF
:1030A0001343A36003B030BD4FF0FF30DFE74FF0B4
:1030B000FF30F7E7183000F08DB80121183000F02C
:1030C000E3B80021183000F0DFB810B590F82430D4
:1030D00004466BB9036898472046FFF7F2FF0038B3
:1030E0004FF0010318BF012084F82430404210BD86
:1030F0000020FCE70020704770B500F1180588B08B
:103100000C462846694600F06AF890BB9DF80030EE
:10311000052B98BF184620601E236A4603212846C7
:1031200000F04AF840BB221D6B4618341D78063368
:1031300013F8056C2902AD0901F47061314313F8ED
:10314000036C42F8041B944213F8041C95634FEA85
:10315000012101F4706141EA0601116113F8021CBA
:10316000516213F8011C4FEA1111D164DED108B08D
:1031700070BD4FF0FF30CEE74FF0FF30F7E70000B3
:1031800090B14A680B6842600A8903600281CA688C
:10319000C2600A6902614A6900624261044AC2610E
:1031A000044A826103B118474FF0FF30704700BFF7
:1031B000D52F0008E32F000810B4D0E90140A44641
:1031C0005DF8044B604710B404688068A4465DF85D
:1031D000044B604701230A461946FFF7EDBF10B5BF
:1031E0000A460C4601230221FFF7E6FF18B92378AF
:1031F00003F00F03237010BD07B501238DF80710EE
:103200000DF107029121FFF7DEFF03B05DF804FB2B
:1032100007B501238DF807100DF107029221FFF782
:10322000D2FF03B05DF804FB07B501238DF807104A
:103230000DF107029321FFF7C6FF03B05DF804FB11
:1032400007B501238DF807100DF107029421FFF750
:10325000BAFF03B05DF804FB07B501238DF8071032
:103260000DF107029521FFF7AEFF03B05DF804FBF7
:1032700007B501238DF807100DF107029621FFF71E
:10328000A2FF03B05DF804FB07B501238DF807101A
:103290000DF10702A421FFF796FF03B05DF804FBD0
:1032A0000A460123A821FFF787BF4FF080624FF441
:1032B00080334FF48071C0E900234FF480524FF403
:1032C0008063C0E902324FF48043C0E90432836175
:1032D0004FF48023C0E907130020704770B59AB0FF
:1032E0000D4606460021144606A850221AF012FD8B
:1032F0001422002101A81AF00DFD2DB9012C59D17D
:103300004FF0FF301AB070BD0423012C09934FF029
:10331000100141F288320CBF08230023002D3046F3
:103320000B930CBF002310230A9340F2FA5308BFFB
:10333000052308930CBF00234FF48063012C0D93E9
:103340000CBF4FF400630023002D0F934FF4405344
:103350000E930CBF4FF080734FF08063012C1493D9
:103360000CBF4FF000630023002D16930CBF002309
:103370000523012C17930CBF0223012315930CBFC7
:103380004FF0005300231893012302934FF480035E
:10339000CDE9043106A902F0C4FF0028B0D141F202
:1033A000883201A9304603F0F9F8003818BF01202F
:1033B0004042A7E70123A8E770B596B00C46064641
:1033C00015460021502202A81AF0A4FC0023012C6B
:1033D000CDE9003304D11DB94FF0FF3016B070BDF8
:1033E0000123002C029318BF042305930CBF002374
:1033F0001023069340D1002D0CBF0B230C23002C6F
:10340000049341F2883202A90CBF4FF480734FF449
:103410008063002D304609930CBF4FF400534FF4E6
:103420004053002C0A930CBF4FF080734FF0806321
:1034300010930CBF08230623139302F072FF002899
:10344000CAD102230293D4B9002D18BF12230493CA
:10345000002341F2883202A93046139302F061FF43
:103460000028B9D100906946304603F0E7F80038EB
:1034700018BF01204042B1E74EF61343BFE741F2C7
:10348000ED23E4E710B596B004464C22002103A8D2
:103490001AF040FC00234FF0080C4FF4006141F299
:1034A00088322046CDE9003301230293042305939B
:1034B0001023CDE9063C4EF611634FF0006C0493E7
:1034C0004FF4806309934FF44053CDE90A314FF034
:1034D000806302A910930623CDE912C34FF0005375
:1034E000149302F01EFF18B14FF0FF3016B010BD5C
:1034F000022341F2883202A9029341F2ED23CDE981
:1035000013002046049302F00CFF0028ECD1009039
:103510006946204603F092F8003818BF0120404267
:10352000E4E770B59AB00D4606460021144606A899
:1035300050221AF0EFFB1422002101A81AF0EAFB36
:103540002DB9012C69D14FF0FF301AB070BD0423A2
:10355000012C099341F2883206A90CBF08230023ED
:10356000002D30460B930CBF002310230A9340F22A
:10357000F96308BF0623089302F0D3FE0028E2D1C6
:10358000002D40F2FA530C9041F2883208BF052317
:1035900006A9304608930CBF00234FF48063012C2A
:1035A0000D930CBF4FF400630023002D0F934FF4D5
:1035B00040530E930CBF4FF080734FF08063012C8B
:1035C00014930CBF4FF000630023002D16930CBF23
:1035D00000230523012C17930CBF0223012315930D
:1035E0000CBF4FF000530023189302F09AFE0028FE
:1035F000A9D102231022039001A93046CDE901335D
:103600004FF48003CDE9043241F2883202F0C6FF64
:10361000003818BF0120404297E7012398E7F0B532
:1036200095B00D46064614460021502268461F46B6
:103630001AF070FB2DB9012C4AD14FF0FF3015B0B4
:10364000F0BD0423012C039306970CBF082300232D
:10365000002D05930CBF00231023049347F28D2304
:1036600008BF722302930CBF4FF480734FF4806342
:10367000012C07930CBF4FF400630023002D099326
:103680004FF4405308930CBF4FF080734FF08063AA
:10369000012C0E930CBF4FF0006300231093CDB1AB
:1036A000012C14BF0123022341F2883269463046BF
:1036B0000F9302F036FE0028BFD141F288321AA9DA
:1036C000304602F0D9FE003818BF01204042B6E76C
:1036D0000123B7E70123E7E7F0B595B00D460646AD
:1036E00014460021502268461F461AF013FB2DB9DC
:1036F000012C53D14FF0FF3015B0F0BD0423012C45
:10370000039341F2883269460CBF08230023002D41
:10371000304605930CBF002310230697049347F20D
:103720008E1308BF712302930CBF4FF480734FF4C4
:103730008063012C07930CBF4FF400630023002D1E
:1037400009934FF4405308930CBF4FF080734FF030
:103750008063012C0E930CBF4FF000630023002DFB
:1037600010930CBF00230523012C11930CBF0223DF
:1037700001230F930CBF4FF000530023129302F06C
:10378000D0FD0028B6D141F288321A99304602F0B5
:10379000B3FE003818BF01204042ADE70123AEE779
:1037A00070B594B00C460646154600215022684676
:1037B0001AF0B0FAF4B9012D1ED00123012D0393A4
:1037C00041F2883269460CBF08230023002C3046A2
:1037D00005930CBF00231023049346F2996308BF9E
:1037E0006623029302F09DFD003818BF012040427D
:1037F00014B070BD0423E1E74FF0FF30F8E770B577
:1038000094B00C46064615460021502268461AF030
:1038100081FAF4B9012D1ED00123012D039341F249
:10382000883269460CBF08230023002C30460593DC
:103830000CBF00231023049349F6661308BF992395
:10384000029302F06EFD003818BF0120404214B010
:1038500070BD0423E1E74FF0FF30F8E7114A08B5E7
:1038600013680BB9002008BD013B1360002BF9D190
:103870004FF480410C4801F05DF90B484FF40041D2
:1038800001F058F9094A0A48D2F8F43023F08003CD
:10389000C2F8F43002F004F80028E3D06FF007001B
:1038A000E1E700BF2C1F0024001402580044025816
:1038B000342900240023012210B54160044603622C
:1038C000C0E90232C0E90433C0E9063301F096FFD3
:1038D000014608B1012010BD204602F072F90146F0
:1038E0000028F7D1204602F092F9003818BF0120D5
:1038F000F1E70000A14BA2482DE9F04F036093B01F
:10390000A04B1A68009201321A60009B002B40F015
:10391000C88002F051F9002840F0C3809A4D4FF45E
:10392000804201210426D5F8E030984843F0200376
:10393000C5F8E030D5F8E03003F020030A930A9B85
:10394000D5F8E03043F02003C5F8E030D5F8E0309A
:10395000119603F020030B930B9B1223CDE90D234B
:103960000223CDE90F130DA900F0FEFF4FF4004331
:103970000DA986480D93119600F0F6FFD5F8F430A6
:1039800043F08003C5F8F430D5F8F43003F0800339
:103990000C930C9BD5F89C3043F08003C5F89C3009
:1039A000D5F89C3023F08003C5F89C3003F0F6FD79
:1039B000002870D0764B4FF01008DFF8DC914FF004
:1039C000140A03EB5003B3FBF0F000EB400240F6A7
:1039D000F6130146C2F1FF22A3EB800302F57F023A
:1039E00023EAE373E23202936A4B22EAE27B009A13
:1039F0001B6896468C46002640F2793401960136C3
:103A0000A44559D900252F46AB4551D8029CAC425C
:103A10004ED390454CD00AFB03F80133019C09EBCF
:103A2000080E7F2B49F80820CEE901473DD9594AB5
:103A30001360584B42F21072574900271B680392DB
:103A40004FF0FF320593430003F13204C3F5905B5E
:103A5000A3F511530BF10C0B09940A3B0293059B40
:103A60009F4234D17F2A16D814235A434A4B9918BF
:103A70009B580C7C44EA03744B681B0503F47003E9
:103A80001C438B681B0403F470231C43CB681B028C
:103A90009BB22343009300993948FFF70BFF00289E
:103AA00069D1002013B0BDE8F08F90464FF0010EB1
:103AB00001370D44102FA7D1102E8C449CD1013218
:103AC0000144102A96D1BEF1000FB0D1B1E70B68C6
:103AD0004FF0000C099C03FB00031C44ABEB0305F7
:103AE00004946C00049D0194029C1C44089441F2CF
:103AF0005C24CDF818C0A5F132060CF1010CA542EA
:103B00002ED9B0EB960F2BD2089C4FF0000EDDF8AB
:103B100010806619DDF8049006F2836A41F24704CA
:103B2000CDF81CE00EF1010EA24512D8B8F57A6F5F
:103B30000FD340450DD236EA260A28BFCA46039C59
:103B4000A24506D2069ACDF80CA00A61079ACA606F
:103B50003A46BEF5807FA9EB03091E449844DBD1A9
:103B6000019CBCF5807F1D44A4EB03040194BED1ED
:103B70000137143173E76FF0070093E7001C00581A
:103B8000342900242C1F0024004402580014025839
:103B900000CA9A3B30290024301F00241FB54FF47F
:103BA0007A7400920A4601460848CDE9013401239F
:103BB00001F08FFE40B1054802F001F804280CBF67
:103BC0006FF065006FF0030004B010BD34290024CD
:103BD0001FB54FF47A7400920A4601460848CDE9B1
:103BE0000134012301F02CFF40B1054801F0E7FF4B
:103BF00004280CBF6FF065006FF0030004B010BD27
:103C00003429002400F0D4BC30B5214C85B02148C3
:103C1000A2786178FFF785FC18B16FF0040005B059
:103C200030BD03231B4800934FF44073A2786178A2
:103C3000FFF7F5FC0028F0D1A27861781548FFF76E
:103C400070FC03460028E8D1012512480095A278AF
:103C50006178FFF7E4FC04460028DED1282000F05C
:103C6000ADFC224629460B48FFF738FB0028D4D18B
:103C700003AB02462946009303460648FFF72CFD96
:103C80000028CAD19DF80C30AB42C8D0C5E700BFB0
:103C9000802900248829002430B5274D85B0274C81
:103CA000AA7869782046FFF73CFC18B16FF0040051
:103CB00005B030BD0323AA786978204600934FF4FD
:103CC0004073FFF7ACFC0028F0D1AA782046697851
:103CD000FFF727FC0028E9D10223AA78697800932E
:103CE00003462046FFF79BFC0028DFD1282000F088
:103CF00065FC4FF080732046E3604FF08053E36231
:103D000002F088FAA8B9012220461146FFF7E6FA28
:103D10000028CBD103AB0122009311460346204675
:103D2000FFF7DAFC0028C1D19DF80C30022BBFD080
:103D3000BCE76FF00300BBE780290024882900243A
:103D40000E4A0423C0E900230A680023026102220C
:103D50008360C0E905234A6842628A68036382621D
:103D6000CA68012AC0E9073309BF4FF08073C360F6
:103D7000C3604FF08053C36202F04CBA005000524F
:103D800010B598B90B4CA37861785BB901220A4849
:103D9000FFF712FB10B16FF0040010BD02230020EA
:103DA0002370FAE70448FFF76DFBF3E76FF00100BB
:103DB000F3E700BF802900248829002410B550B9FA
:103DC000094C2378022B09D1084802F066FC40B95F
:103DD0000123237010BD6FF00100FBE76FF01A00A4
:103DE000F8E76FF00300F5E7802900248829002414
:103DF00010B5002856D12D4C2378022B4BD0002330
:103E00004FF480612A482380A37000F093FE0421C0
:103E1000284800F08FFE4021274800F08BFE4FF429
:103E20000061264800F086FE4FF48051234800F0E0
:103E300081FE0421224800F07DFE4FF400511F480E
:103E400000F078FE10211D4800F074FE20211B4870
:103E500000F070FE4FF40071174800F06BFE8021F7
:103E6000164800F067FE174B1748DA6F42F480429D
:103E7000DA67DA6F22F48042DA67D3F8D42022F4CA
:103E80008042C3F8D42002F039FA00280CBF002089
:103E90006FF0030010BDFFF791FF0028AFD06FF067
:103EA0000400F7E76FF00100F4E700BF8029002469
:103EB000001402580004025800180258000C02585E
:103EC0000010025800440258882900242DE9FF41BF
:103ED0000D461646002858D12F4C2378022B57D078
:103EE0006378012B48D10129A27809D1964207D1E4
:103EF0000123002065702370A67004B0BDE8F08136
:103F0000264F01213846FFF70CFB034688BB8DF88E
:103F10000C008DF80D0000903846A2786178FFF70C
:103F20007EFB804628BB282000F048FBA378012BAD
:103F300006D13846C7F80C80C7F82C8002F06AF921
:103F4000002216481146FFF7C9F990B903AB0246A3
:103F50000146009303461148FFF7BEFB48B99DF8A0
:103F60000C3033B9012DC3D1A3784BB9FFF794FEC0
:103F700008E06FF00400C0E70129B9D1002AF5D1AB
:103F8000FFF742FE0028B8D1B2E76FF00100B4E7B6
:103F90006FF01900B1E700BF8029002488290024B0
:103FA00000B54FF00073AFB050220193202301A859
:103FB00013930523CDE9023204930223CDE905339F
:103FC0000023CDE90833079303F014FC2FB05DF80C
:103FD00004FB00002DE9F0430D469BB0002840F0A3
:103FE0006081B14E3478002C40F05981AF4B4FF0D6
:103FF00002094FF00A0811A9D3F8D4200427AC48CD
:1040000042F48042C3F8D420D3F8D42002F4804292
:104010000192019ADA6F42F48042DA67DA6F22F491
:104020008042DA67D3F8E02042F02002C3F8E020B3
:10403000D3F8E02002F020020292029AD3F8E020A6
:1040400042F00202C3F8E020D3F8E02002F00202BE
:104050000392039AD3F8E02042F04002C3F8E02034
:10406000D3F8E02002F040020492049AD3F8E02052
:1040700042F00802C3F8E020D3F8E02002F0080282
:104080000592059AD3F8E02042F00802C3F8E02038
:10409000D3F8E02002F008020692069AD3F8E02056
:1040A00042F01002C3F8E020D3F8E02002F0100242
:1040B0000792079AD3F8E02042F00802C3F8E02004
:1040C000D3F8E02002F008020892089AD3F8E02022
:1040D00042F00802C3F8E020D3F8E02002F0080222
:1040E0000992099AD3F8E02042F00802C3F8E020D0
:1040F000D3F8E02002F008020A920A9AD3F8E020EE
:1041000042F04002C3F8E020D3F8E02002F0400281
:104110000B920B9AD3F8E02042F00802C3F8E0209B
:104120000122D3F8E03003F008030C930C9B4023EA
:10413000CDE911390323CDF85480CDE9132300F0E4
:1041400013FC11A95B4811971394CDF8548000F02B
:104150000BFC4FF480631394092411A95648119362
:10416000159400F001FC4FF4006311A9534811931A
:10417000159400F0F9FB4FF4805311A94F481193A7
:10418000159400F0F1FB11A94D48119720271594C3
:1041900000F0EAFB4FF4005311A94848119315941D
:1041A00000F0E2FB102311A944481193CDF854808C
:1041B00000F0DAFB11A941481197CDF8548000F0C6
:1041C000D3FB4FF4007311A939481193159400F0F3
:1041D000CBFB802311A939481193CDF8548000F00E
:1041E000C3FB11A8FFF761F8119BCDF8389093FA43
:1041F000A3F30BB1B3FA83F7002332480D970F9363
:104200006B781093FFF7CCFE20B16FF003001BB06A
:10421000BDE8F0830DA92B48FFF792FD0246002868
:10422000F3D101462748FFF7BBFA024610B16FF001
:104230000400ECE701462348FFF7E1FA02460028B4
:10424000F5D101211F48FFF7ABFA02460028EED155
:1042500001211C48FFF7D3FA0028E8D101221948B0
:104260001146FFF79DFA0028E1D1012215481146B9
:10427000FFF7C5FA0028DAD10123B070642033803B
:1042800000F09CF9B27871780E48FFF727F8002803
:10429000CDD16A782978FFF719FE0028C7D1002010
:1042A000B5E76FF00100B2E780290024004402580E
:1042B000001802580004025800140258000C02585A
:1042C00000100258882900242DE9F0410C4688B0DE
:1042D000002863D10B685A1EB2F5F07F5ED24A689F
:1042E000511EB1F5887F59D2934228BF1346E26828
:1042F0009A4253D870232B4D019002A9ADF810308B
:104300002846294B0293294B0393294B0693294BAB
:104310000593294B0793FEF733FF28B14FF0FF3584
:10432000284608B0BDE8F08101A92846FEF78EFEB8
:104330000028F3D1019B512BF0D1204B2846204F70
:10434000DFF884803D60C8F800301B689847054658
:104350000028E3D1236802A91A4E386833606368E5
:104360007360A368B360E368F360D8F80030DB697A
:10437000984700280FDB039B22683361049B616828
:104380007361E3681A440B4401320133B261736212
:10439000C6E90723C4E76FF00405C1E76FF0010524
:1043A000BEE700BFE4290024F53800085D380008A6
:1043B000D13B00089D3B0008053C00080C00002490
:1043C0000C2A0024102A0024382A00242DE9FF4159
:1043D0000D46002853D12B4B01A92B4A1B681068AE
:1043E0001B699847002847DB284901988F690E6AA6
:1043F00000283DD0D1F808E0D1F810801EF0080F59
:10440000DDE902C319BF1A4664461C4662461EF027
:10441000020F1CBF08F1FF32A2EB0C02D1F814C04E
:104420001EF0040F18BFACEB03040B6853434A683B
:1044300028606243CC68B3FBF8F3B2FBFCF2BB42EA
:104440006B60AA608CBFA3EB070CA7EB030CB24216
:104450008CBF901BB01A644501D3844205D28B6196
:104460000A62002004B0BDE8F081C5E90176F8E7F2
:10447000C5E90007AE60F5E76FF00400F2E76FF002
:104480000100EFE7382A00240C2A0024102A002417
:10449000224AD2F8883043F47003C2F88830204AA8
:1044A000136803F00F03062B05D8136823F00F03DE
:1044B00043F0070313601B4B1A6842F001021A60B5
:1044C00000221A61184A19680A4015491A600A68D8
:1044D000120705D50A6822F00F0242F007020A60AF
:1044E000002212499A61DA611A6299621049D9620E
:1044F000104919635A639963DA6319645A64196835
:1045000021F4802119601A6643F2D2020A4B1A6024
:104510004FF00062014B9A60704700BF00ED00E071
:1045200000200052004402587FEDF6EA0002020229
:104530000000FF01800201010040005210B503207D
:1045400000F04EF802F030FE0F49104A8B69C3F3B9
:104550000323D35C03F01F03D8408B6903F00F03E0
:10456000D35C0B4A03F01F0320FA03F31360094BDB
:1045700018600020FCF732FF044618B9FCF7F6FB80
:10458000204610BD0124FBE70044025804FB01084B
:10459000400000243C000024034A044B11681B78AF
:1045A0000B441360704700BF3C2A002444000024E1
:1045B000014B1868704700BF3C2A002438B50446F8
:1045C000FFF7F6FF0546631C1EBF044B1B78E4187B
:1045D000FFF7EEFF431BA342FAD338BD440000248B
:1045E00007490302CA6803F4E06322F4E06212049C
:1045F000120C134343F0BF6343F40033CB607047A6
:1046000000ED00E0164B30B5DC68C4F30224C4F1C1
:104610000705231D042D28BF0425062B4FF0FF336B
:104620008CBF033C002403FA05F5002803FA04F3C9
:1046300021EA050122EA030201FA04F141EA020338
:104640004FEA0313DBB206DB00F1604000F5614086
:1046500080F8003330BD00F00F00024A1354F9E730
:1046600000ED00E014ED00E0002808DB0123420922
:1046700000F01F0003FA00F0014B43F822007047DE
:1046800000E100E0BFF35F8F044B5A6A22F48032EE
:104690005A620022C3F89420704700BF00ED00E08A
:1046A000064B40F00100C3F894005A6A42F480328D
:1046B0005A62BFF34F8FBFF36F8F704700ED00E07A
:1046C0004378144A10B5C2F898300178E9B14368CC
:1046D000C2F89C30C37A047B1B0643EA04730B4385
:1046E000817A43EAC143417B43EA8143817B43EAC8
:1046F0004143C17B43EA0143417A43EA0123017A02
:1047000043EA4103C2F8A03010BDC2F89C10C2F8C1
:10471000A010F9E700ED00E010B5044608B901204B
:1047200010BD437F03F0FF0213B90277FCF736FB9D
:10473000022363772379E3B92368134A5A619A689D
:1047400022F018029A6062792368D2B94FF0FF32E2
:104750001A6100209A68616922F060020A43A16927
:104760009A609A6822F080020A439A600123637774
:10477000D6E7D4E90212204600F008F80028E2D07B
:10478000CDE72269E4E700BFB71DC1041F2310B5C0
:10479000013B1CD321FA03F4E407F9D5102A12D007
:1047A00004D83AB1082A10D001200BE0182AFBD116
:1047B000062BF9D800684161836823F018031A4377
:1047C0008260002010BD072BF3E70F2BF1E7002AD2
:1047D000EAD1EFE710B50446002836D090F86130F2
:1047E00003F0FF021BB980F86020FCF7EFFA022308
:1047F000E069626884F8613023680243A06919683F
:1048000021F4E02121F040010A431A60596BA268AB
:1048100021F48371024321F001010A43E1685A63E4
:104820001A6C120C12040A431A64596BD4E904027C
:1048300021F44011520542EA005200200A435A6313
:104840000123606684F8613010BD0120FCE77047E9
:104850007047036870B55E6804461D68F20714D59A
:10486000E90512D51A6822F480721A60426E42F08D
:104870000102426601229A60042380F8613000231D
:1048800080F86030436A03B19847B20616D5AB048E
:1048900014D523681A6822F400521A6020229A6004
:1048A000636E43F002036366042384F861300023DF
:1048B00084F86030636A0BB120469847300716D5FC
:1048C000290514D523681A6822F400621A600822A8
:1048D0009A60636E43F004036366042384F86130D6
:1048E000002384F86030636A0BB120469847720752
:1048F0000BD56B0509D5236820461A6822F480621F
:104900001A6004229A60FFF7A2FFB00714D5A90528
:1049100012D523681A6822F400721A6002229A6083
:10492000636E6366012384F86130002384F860308D
:10493000236A0BB120469847F20613D5EB0411D534
:10494000236820461A6822F480521A6010229A6066
:10495000636E6366012384F86130002384F860305D
:10496000FFF776FF70BD00002DE9F74F0023DFF859
:10497000C0914FF0B0440A6832FA03F502D103B097
:10498000BDE8F08F4FF0010E0EFA03FE1EEA0202A0
:1049900000F0B9804E684FEA43084FF0030C06F070
:1049A00003050CFA08FC6F1E6FEA0C0C012F34D8BB
:1049B000876807EA0C0ACF6807FA08F747EA0A0788
:1049C0008760476827EA0E0EC6F300179F4047EA44
:1049D0000E074760C768022D07EA0C0E8F6807FABA
:1049E00008F747EA0E07C76019D14FEAD30A03F068
:1049F000070B4FF00F0E00EB8A0A4FEA8B0BDAF829
:104A000020700EFA0BFE27EA0E0E0F6907FA0BF75D
:104A100047EA0E07CAF8207001E0032DDAD10768D3
:104A200005FA08F516F4403F07EA0C0747EA0507C0
:104A3000076068D0D9F8F45023F0030703F0030CA3
:104A40004FF00F0E45F0020507F1B0474FEA8C0C0E
:104A5000C9F8F45007F58067D9F8F45005F002055D
:104A60000195019D0EFA0CF5D7F8088028EA050E8D
:104A70002E4DA84249D005F58065A84247D005F5DE
:104A80008065A84245D005F58065A84243D005F56C
:104A90008065A84241D005F58065A8423FD005F564
:104AA0008065A8423DD005F58065A8423BD005F55C
:104AB0000065A8420CBF09250A2505FA0CF516F475
:104AC000801F45EA0E05BD606FEA020725680CBF2E
:104AD0003D40154316F4001F256065680CBF3D403E
:104AE000154316F4003F6560D4F884500CBF3D4078
:104AF0001543F603C4F88450D4F8805054BF3D40A9
:104B00001543C4F88050013335E70025D5E701256A
:104B1000D3E70225D1E70325CFE70425CDE7052517
:104B2000CBE70625C9E70725C7E700BF0000025805
:104B3000004402582DE9F04F0022DFF82081DFF811
:104B40002091DFF820A1DFF820B131FA02F301D182
:104B5000BDE8F08F012303FA02FC1CEA010669D0CC
:104B600022F0030402F003070F253B4B04F1B0448D
:104B7000BF00984205FA07F5D4F808E404F580640C
:104B800005EA0E0E58D003F58063984256D003F51F
:104B90008063984254D003F58063984252D003F565
:104BA0008063984250D0404550D0484550D0504541
:104BB00050D058450CBF09230A23BB40734519D177
:104BC0004FF0B043D3F8807027EA0607C3F880702F
:104BD000D3F8847027EA0607C3F884705F6827EA71
:104BE00006075F601F6827EA06061E60A36823EABF
:104BF0000503A36003255300046802F0070705FAC4
:104C000003F30F26BF001C43BE40046022FA05F4E4
:104C100000EB8404256A25EA06062662C46824EAB5
:104C20000304C460446824EA0C044460846824EAF1
:104C300003038360013288E70023BEE70123BCE75A
:104C40000223BAE70323B8E70423B6E70523B4E752
:104C50000623B2E70723B0E7000002580014025809
:104C600000180258001C0258002402580369194217
:104C700014BF0120002070470AB181617047090408
:104C8000FBE7436901EA030221EA030141EA024129
:104C9000816170472DE9F043054685B095F8F842EB
:104CA0009DF830E0012C9DF83480BDF8389025D077
:104CB0000124D009002702F07F0685F8F8422C2451
:104CC00004FB015484F83D7084F8383084F83910BE
:104CD00084F83F8084F83A6084F83B0084F83CE034
:104CE000A4F840902868CDF800E0CDE9018904F0EF
:104CF000E2FA85F8F87205B0BDE8F0830220FAE721
:104D000010B590F8F8320446012B09D0012380F841
:104D1000F832006804F064FB002084F8F80210BD4B
:104D20000220FCE72DE9F04106468AB0002843D076
:104D300090F8F932046803F0FF021BB980F8F822FA
:104D4000FDF734FB03236D4606F10408374686F869
:104D5000F932E36B344613F4807354F8100B08BF38
:104D6000336104F01DF90FCC0FC50FCC0FC594E8CB
:104D7000030085E8030098E80E00306804F0C0F8EE
:104D800057F8100B012104F011F9EC460FCFACE8F5
:104D90000F000FCFACE80F0094E8030085E8030094
:104DA00098E80E00306804F0B5F90123002086F879
:104DB000F9320AB0BDE8F0810120FAE7F0B42C2600
:104DC0009DF81070059D06FB0106BDF818409DF882
:104DD0001CC086F83B2086F83F307FB90327022BA2
:104DE00086F83DC086F842703CD0BB423AD0012BD9
:104DF0001FD12C23002203FB010330E04FF0020CF3
:104E000086F842C0032B14D801A656F823F000BF41
:104E1000214E0008F34D0008654E0008654E00085D
:104E2000012F06D12AB92C2303FB01039CB983F877
:104E300055702C2202FB010383F839101946DC64FB
:104E400000245D643831A3F860401C65027C006872
:104E5000F0BC04F033BB93F85560002EE9D183F821
:104E60004220E6E72C2303FB01032AB993F855609F
:104E7000002EF4D00222F2E793F85420002AF9D150
:104E8000EDE700BF2DE9F04F066885B004463046D7
:104E900004F03BF9012840F0F380206804F031F978
:104EA000002800F0ED80206804F02BF9830203D580
:104EB00023684FF400125A61206804F022F9C702F7
:104EC00003D523684FF480125A61206804F019F961
:104ED000450103D523684FF080625A61206804F0D1
:104EE00010F9800702D5236802225A61206804F075
:104EF00008F9810015D523684FF000525A61D6F8A1
:104F00004034DA070DD41021304604F07DF83046E5
:104F100004F0A0F80121206804F062F92046FDF7B2
:104F20009FFA206804F0EDF8C3013DD52568D5F857
:104F300040340293D5F840340393039B23F02E03AF
:104F40000393029B9F0709D5029BD80702D52046F1
:104F5000FDF782FA039B43F002030393029B1907B8
:104F600018D5039B43F008030393029B5A0740F1B3
:104F70009280A169022940F08680029B206803F498
:104F8000C023B3F5802F18BF012104F029F9204672
:104F9000FDF76EFA029B9B0603D5039B43F02003AB
:104FA0000393039BC5F84034206804F0AAF8070770
:104FB00005D52046FDF74CFA236808225A6120687F
:104FC00004F09FF8C50644D52768BB6923F0100399
:104FD000BB613B6AC3F34342022A35D1C3F30A19CA
:104FE000B9F1000F30D003F00F082C2505FB084560
:104FF000696C49B32B6DEA6C4B4493424FD84A46D7
:10500000384604F05EF86B6C07F5A067B5F8401001
:105010004B444FEA4812894507EB48186B642B6DE7
:105020004B442B65D8F810300ED1C3F3C9435BB1A4
:10503000D35923F0804343F00043D35195F85430C3
:1050400083F0010385F854302268936943F010031C
:105050009361206804F055F8800111D520684FF065
:10506000000904F0B8F92C2506F5A0630227019089
:105070000093A36820684B4515D84FF00073436137
:1050800005B0BDE8F08FE368012B80D14EF66022B9
:10509000C5F804247BE72046FDF7EEF97AE7042300
:1050A00085F86030D0E709F00F03019A22FA03F384
:1050B000D90740F18580009B5FFA89FB00F5A06A63
:1050C0001A684FEA4B180AEB4B1612F4004FB268FD
:1050D00000F0E280520706D50422B2604FF0060CC1
:1050E00005FB0B4209E0B268D3050CD54FF4807282
:1050F0004FF0070CB26005FB0B42594682F861C0C5
:1051000004F06EF904E0B26891060CD52022B2607A
:10511000B268920521D55946206804F061F94FF430
:105120000072B2604CE0B268120706D508224FF058
:10513000050CB26005FB0B42DFE7B268530507D5EB
:105140004FF480624FF0080CB26005FB0B42D4E7CD
:10515000B2681106DCD58022BFE7B268D30744D518
:10516000226942B1326905FB0B40C2F3120C826C1A
:10517000A2EB0C02026505FB0B400122002380F824
:105180006120C365B26090F83F2012F0FD021DD18E
:105190005946206804F024F91022B260236905FB07
:1051A0000B41012B06D1B1F840208B6CB3FBF2F31D
:1051B000D80705D591F8543083F0010381F85430B5
:1051C000009B09F101092033009352E7012AE5D140
:1051D00058F80A30594643F0005348F80A3080F82E
:1051E00060202046FDF740F9D8E7B36813F00203CA
:1051F00035D005FB0B4090F86120012A0BD180F8D7
:10520000602005FB0B435946B760204693F86020A9
:10521000FDF72AF9D4E7052AF1D0062A01D0082A99
:1052200009D105FB0B40C26D0132022AC26504D9C7
:105230000023C36511E0032A0AD180F8607058F892
:105240000A2022F0804242F0004248F80A20D8E7C3
:10525000072AD6D1C26D0132C2650422CFE7B268F7
:10526000D206ADD505FB0B4E20689EF83F20032AE1
:1052700006D1CEF85C30594604F0B2F8102250E75F
:1052800012F0FD02FAD1CEF85C202269002AF5D195
:1052900003228EF86120EEE712F0040207D0042208
:1052A00005FB0B43B260062283F8612010E0B3686F
:1052B0009B0611D52023B36005FB0B4393F83DC03B
:1052C000BCF1010F7FF47CAF83F83D2083F8607060
:1052D000594604F085F873E7B36813F4007303D0FC
:1052E0004FF40072B260F3E7B26812F0010210D01E
:1052F00005FB0B42D365B368590605D54FF0010C89
:1053000082F83DC04022B260012205FB0B43B2602F
:10531000CAE7B3685B0610D505FB0B4C4FF0040ED3
:1053200059468CF861E04FF0010ECCF85C208CF807
:105330003DE004F055F84022F3E6B268110705D5C8
:10534000082205FB0B43B2600522ADE7B268D20626
:1053500014D505FB0B4200234FF0030CD36592F8E4
:105360003D3082F861C0002B85D192F83C30002B93
:1053700081D14FF0010C82F83DC07CE7B268130682
:1053800020D5226952B905FB0B424FF0060C594655
:1053900082F861C004F024F88022C2E605FB0B40CD
:1053A000C26D0132022AC26509D90023042259467E
:1053B000C36580F860202046FDF756F8ECE780F8DA
:1053C0006070E9E7B26851050BD505FB0B424FF061
:1053D000080C594682F861C004F002F84FF480626C
:1053E0009FE6B26892077FF5EBAE05FB0B4292F8A1
:1053F0006100012821D182F8600092F83F00023854
:1054000001283FF6FEAE206930B992F8550080F0D1
:10541000010082F85500F4E601287FF4F2AED06C6A
:1054200000283FF4EEAEB2F840C001386044B0FB53
:10543000FCF0C3077FF5E5AEE7E7032802D182F869
:105440006070DEE60428FAD0052802D182F86000F8
:10545000D7E606283FF4E5AE08287FF4D2AEE0E6B2
:1054600010B590F8F8320446012B0CD0012180F8D9
:10547000F812006803F0EFFE206803F08BFD0020B7
:1054800084F8F80210BD0220FCE710B590F8F8325D
:105490000446012B09D0012380F8F832006804F09B
:1054A000B4F8002084F8F80210BD0220FCE7006880
:1054B00003F0B3BE2C2303FB010191F86000704799
:1054C0002C2303FB0101086D7047006803F0EEBE5A
:1054D000006803F0E0BE03689A69910701D50022D5
:1054E0009A629A69D20703D49A6942F001029A61DA
:1054F0007047000030B5039DC1F3090104682B43D8
:10550000606843EA0243054A0B4342EA555223F0DE
:10551000004320EA02000343636030BDFF63FF03E2
:105520002DE9F84303680546884617469C6914F040
:10553000100479D0102200264FF02009DA612B6880
:105540009A69940636D40EB1042439E0B8F1FF3FCD
:10555000F6D0FFF72DF8C01B404502D8B8F1000F78
:10556000EDD12B68596895F842209869D2B20004B1
:105570000AD5490408D4202A06D05A6842F4804249
:105580005A60FFF715F807462B689C6914F0200451
:10559000D5D1FFF70DF8C01B1928F5D96B6C012682
:1055A00085F8404043F020036B6485F8419085F80E
:1055B0004240E9E7002EC7D1202204240126DA6107
:1055C0002B689A69D00505D54FF4807144F0010429
:1055D0000126D961510505D54FF4806144F00804D6
:1055E0000126D961920521D54FF4007244F00204DE
:1055F000DA6128460126FFF76EFF2A68536823F018
:10560000FF7323F48B3323F4FF7323F00103536000
:105610006B6C1C4320236C6485F84130002385F8B3
:10562000423085F8403003E02646C9E7002EE0D13D
:105630003046BDE8F88370B504460D46164623682B
:105640009B699B0701D5002070BD32462946204644
:10565000FFF766FFA0B96A1CF1D0FEF7A9FF801B17
:10566000A84201D8002DEAD1636C43F020036364A3
:10567000202384F84130002384F8423084F84030FD
:105680000120E1E72DE9F041069F044688461646D1
:105690001D462268936938EA03030CBF01230023E7
:1056A000B34201D0002015E06B1CF3D0FEF780FF61
:1056B000C01BA84201D8002DEBD1636C012043F040
:1056C00020036364202384F84130002384F84230AF
:1056D00084F84030BDE8F0812DE9F3411E46184BB7
:1056E000054614460093F2B24FF08073DDE9087866
:1056F000FFF700FF284642463946FFF79CFF18B1E6
:10570000012002B0BDE8F081012E2B680DD1E4B27A
:105710000022802128469C623B46CDF80080FFF79E
:10572000B1FF003818BF0120EBE7220A39462846AE
:105730009A624246FFF77FFF0028E1D12B68E6E737
:10574000002000802DE9F3411E46184B0546144603
:105750000093F2B20023DDE90878FFF7CBFE28467C
:1057600042463946FFF767FF18B1012002B0BDE895
:10577000F081012E2B680DD1E4B200224021284691
:105780009C623B46CDF80080FFF77CFF003818BFD5
:105790000120EBE7220A394628469A624246FFF783
:1057A0004AFF0028E1D12B68E6E700BF0020008017
:1057B00070B504460D46164623689B699B0601D5C5
:1057C000002070BD324629462046FFF7A9FE90B959
:1057D000FEF7EEFE801BA84201D8002DECD1636CD1
:1057E00043F020036364202384F84130002384F8CD
:1057F000423084F840300120E3E7704710B504469A
:1058000000284AD090F8413003F0FF021BB980F81D
:105810004020FFF7F2FF242384F8413023681A6800
:1058200022F001021A60626822F070621A619A68BE
:1058300022F400429A60D4E90221012924D142F4E1
:1058400000429A605A68002042F0007242F400421E
:105850005A60DA6822F40042DA60D4E904210A438B
:10586000A16942EA0122DA60D4E907210A431A60F9
:105870001A6842F001021A602023606484F8413003
:10588000206384F8420010BD42F4044202299A6069
:10589000D8D14FF400625A60D4E70120F3E7704793
:1058A00010B5044698B10268242380F8413013688B
:1058B00023F001031360FFF7F2FF0020606484F817
:1058C000400084F84100206384F8420010BD0120AC
:1058D000FCE72DE9F04F85B09B4604460F46BDF826
:1058E0003C309246DDF84090039390F84130202BF5
:1058F00040F0A3800E9B0BB1039B33B94FF40073B0
:105900006364012005B0BDE8F08F90F84030012BB2
:1059100000F09380012580F84050FEF749FE1923DE
:10592000009006462A464FF400412046FFF7AAFEA3
:1059300080460028E5D1212360635246394684F829
:105940004130402384F842300E9B606420466362FD
:10595000039BCDE9009663855B46FFF7BDFE10B162
:1059600084F84080CDE7638D9BB2FF2B55D9FF2291
:105970004FF080730090228539462046FFF7BAFD2C
:10598000324649462046FFF756FE0028B9D1636AE1
:10599000226813F8011B91626362638D228D013BC3
:1059A000013A9BB292B26385638D22859BB2ABB103
:1059B000A2B94B46802120460096FFF763FE0028DF
:1059C0009FD1638D9BB2FF2B2FD9FF224FF08073A5
:1059D0000090228539462046FFF78CFD638D9BB2EF
:1059E000002BCDD1324649462046FFF7E1FE002884
:1059F00087D123682021D9615A6822F0FF7222F4EE
:105A00008B3222F4FF7222F001025A6084F84110B6
:105A100084F8400084F8420074E7628D4FF0007310
:105A2000009092B22285D2B2A6E7628D4FF0007349
:105A3000009092B22285D2B2CCE7022062E7000049
:105A40002DE9F04F85B09B4604460F46BDF83C302B
:105A50009246DDF84090039390F84130202B40F0BF
:105A6000A7800E9B0BB1039B33B94FF400736364A3
:105A7000012005B0BDE8F08F90F84030012B00F018
:105A80009780012580F84050FEF792FD1923009081
:105A900006462A464FF400412046FFF7F3FD8046B4
:105AA0000028E5D1222360635246394684F841300C
:105AB000402384F842300E9B606420466362039B5F
:105AC000CDE9009663855B46FFF73CFE10B184F894
:105AD0004080CDE7638D9BB2FF2B364B58D9FF2218
